:020000040000FA
:04000000C2EF7CF0DF
:10F86000800F810F820F830F840F890F8A0F8B0FF8
:10F870008C0F8D0F920F930F940F950F960F02120E
:10F88000223242526272031323331F0E386E000E6F
:10F89000396EDBEC7CF0210E386E000E396EDBEC3D
:10F8A0007CF0230E386E000E396EDBEC7CF0250EFA
:10F8B000386E000E396EDBEC7CF012001F0E386ED5
:10F8C000000E396EF5EC7CF0210E386E000E396EAC
:10F8D000F5EC7CF0230E386E000E396EF5EC7CF002
:10F8E000250E386E000E396EF5EC7CF012001F0EFE
:10F8F000386E000E396EDBEC7CF0210E386E000E97
:10F90000396EF5EC7CF0230E386E000E396EDBECB0
:10F910007CF0250E386E000E396EF5EC7CF012008E
:10F920001F0E386E000E396EF5EC7CF0210E386E2D
:10F93000000E396EDBEC7CF0230E386E000E396E53
:10F94000F5EC7CF0250E386E000E396EDBEC7CF0A9
:10F9500012001F0E386E000E396E29EC7DF0210E5C
:10F96000386E000E396E29EC7DF0230E386E000ED5
:10F97000396E29EC7DF0250E386E000E396E29ECBB
:10F980007DF01200600EF66EF80EF76E000EF86E47
:10F9900000EE01F010EE2AF00900F5CFEEFFE55081
:10F9A000E150FAE13E6A3D6A3C6A3B6A000EF86E3D
:10F9B00000019AEF7FF038503910D8A4E2EF7CF0C4
:10F9C000E4EF7CF0E6EF7CF0F4EF7CF0010E3824FD
:10F9D000346E000E3920356E0AEC7EF038C034F0FB
:10F9E00039C035F0CFEC7DF0120038503910D8A472
:10F9F000FCEF7CF0FEEF7CF000EF7DF00EEF7DF091
:10FA000038C034F039C035F00AEC7EF0010E3824ED
:10FA1000346E000E3920356ECFEC7DF01200385078
:10FA20003910D8A416EF7DF018EF7DF01AEF7DF0B5
:10FA300028EF7DF038C034F039C035F084EC7EF02A
:10FA4000010E3824346E000E3920356E84EC7EF0C1
:10FA5000120038503910D8A430EF7DF032EF7DF02D
:10FA600034EF7DF042EF7DF038C034F039C035F02E
:10FA7000CFEC7DF0010E3824346E000E3920356E47
:10FA8000CFEC7DF0120034C0D9FF35C0DAFFDF5073
:10FA90000F0B366E050E366050EF7DF052EF7DF0A5
:10FAA0006EEF7DF034503510D8A459EF7DF05BEF48
:10FAB0007DF05DEF7DF06EEF7DF034C0D9FF35C095
:10FAC000DAFFDF38070B2B6E010E2C6E34C0D9FF26
:10FAD00035C0DAFFDF500F0BD0EC7EF01200336E32
:10FAE000070E2B6476EF7DF078EF7DF07AEF7DF0F6
:10FAF0009DEF7DF02BC02EF03350020D010EF3244C
:10FB0000D96E000EF420DA6EDECF2FF0DDCF30F0AC
:10FB10002FC0D9FF30C0DAFFDF50316E2E2A93EFAD
:10FB20007DF0D89031322E2E91EF7DF03150010BC7
:10FB30002CC0D9FF2DC0DAFFDF6E12001F0E386E09
:10FB4000000E396E0FEC7DF0210E386E000E396E0E
:10FB50000FEC7DF0230E386E000E396E0FEC7DF049
:10FB6000250E386E000E396E0FEC7DF0270E346EC8
:10FB7000000E356E43EC7DF0280E346E000E356EAF
:10FB800043EC7DF0290E346E000E356E43EC7DF0B3
:10FB90002A0E346E000E356E43EC7DF012003450A8
:10FBA0003510D8B4D6EF7DF0D8EF7DF009EF7EF0B8
:10FBB00034C0D9FF35C0DAFFDF500F0B366E050EAB
:10FBC0003660E5EF7DF0E7EF7DF009EF7EF034C0C1
:10FBD000D9FF35C0DAFFDF38070B366E070E366403
:10FBE000F4EF7DF0F6EF7DF0F8EF7DF009EF7EF0B9
:10FBF00034C0D9FF35C0DAFFDF38070B2B6E000E9B
:10FC00002C6E34C0D9FF35C0DAFFDF500F0B34EC57
:10FC10007FF0120034503510D8B411EF7EF013EF9E
:10FC20007EF044EF7EF034C0D9FF35C0DAFFDF50FC
:10FC30000F0B366E050E366020EF7EF022EF7EF061
:10FC400044EF7EF034C0D9FF35C0DAFFDF38070B50
:10FC5000366E070E36642FEF7EF031EF7EF033EF15
:10FC60007EF044EF7EF034C0D9FF35C0DAFFDF38D4
:10FC7000070B2B6E010E2C6E34C0D9FF35C0DAFF96
:10FC8000DF500F0B34EC7FF0120034C0D9FF35C0C9
:10FC9000DAFFDF500F0B386E050E386052EF7EF042
:10FCA00054EF7EF083EF7EF034503510D8A45BEF34
:10FCB0007EF05DEF7EF05FEF7EF083EF7EF034C08C
:10FCC000D9FF35C0DAFFDF38070B2B6E36C02CF0BA
:10FCD00037C02DF034C0D9FF35C0DAFFDF500F0B2D
:10FCE0006FEC7DF036C0D9FF37C0DAFFDF50386ED9
:10FCF00034C0D9FF35C0DAFF38323832DF50381817
:10FD00007F0B3818DF6E120034503510D8B48BEFEB
:10FD10007EF08DEF7EF0CFEF7EF034C0D9FF35C09E
:10FD2000DAFFDF500F0B366E050E36609AEF7EF06D
:10FD30009CEF7EF0CFEF7EF034C0D9FF35C0DAFF04
:10FD4000DF38070B366E070E3664A9EF7EF0ABEF97
:10FD50007EF0ADEF7EF0CFEF7EF034C0D9FF35C03E
:10FD6000DAFFDF38070B2B6E000E2C6E34C0D9FF84
:10FD700035C0DAFFDF500F0BD0EC7EF034C0D9FF76
:10FD800035C0DAFFDF38070B2B6E000E2C6E34C047
:10FD9000D9FF35C0DAFFDF500F0B34EC7FF01200D3
:10FDA000336E070E2B64D7EF7EF0D9EF7EF01EEF97
:10FDB0007FF033EF7FF02BC02DF0010E2E6E2D2A39
:10FDC000E4EF7EF0D8902E362D2EE2EF7EF02E500E
:10FDD000FF0A2F6E3350020D150EF324D96E000E5C
:10FDE000F420DA6EDECF30F0DDCF31F030C0D9FF55
:10FDF00031C0DAFF2F50DF1633EF7FF02BC02DF02C
:10FE0000010E2E6E2D2A07EF7FF0D8902E362D2E64
:10FE100005EF7FF03350020D150EF324D96E000E5E
:10FE2000F420DA6EDECF2FF0DDCF30F02FC0D9FF17
:10FE300030C0DAFF2E50DF12FCEF7EF02C502D6E1A
:10FE40002E6A2E50000AD8B428EF7FF033EF7FF0EF
:10FE50002D50000AD8B4DBEF7EF0010AD8B4FEEFD3
:10FE60007EF033EF7FF01200336E070E2B643BEF12
:10FE70007FF03DEF7FF084EF7FF099EF7FF02BC0B4
:10FE80002DF0010E2E6E2D2A48EF7FF0D8902E36E1
:10FE90002D2E46EF7FF02E50FF0A2F6E3350020DAD
:10FEA0000B0EF324D96E000EF420DA6EDECF30F0A4
:10FEB000DDCF31F030C0D9FF31C0DAFF2F50DF166F
:10FEC00099EF7FF02BC02DF0010E2E6E2D2A6BEFD7
:10FED0007FF0D8902E362D2E69EF7FF03350020D33
:10FEE0000B0EF324D96E000EF420DA6EDECF2FF065
:10FEF000DDCF30F02FC0D9FF30C0DAFF2E50DF1237
:10FF000060EF7FF099EF7FF02C502D6E2E6A2E500F
:10FF1000000AD8B48EEF7FF082EF7FF02D50000AF8
:10FF2000D8B43FEF7FF0010AD8B462EF7FF082EFE0
:10FF30007FF012009EEC7DF0270E346E000E356EC1
:10FF40003E0E366E000E376E45EC7EF0280E346E97
:10FF5000000E356E3D0E366E000E376E45EC7EF0AF
:10FF6000290E346E000E356E3C0E366E000E376E66
:10FF700045EC7EF02A0E346E000E356E3B0E366E6A
:10FF8000000E376E45EC7EF03E04D8A4CAEF7FF039
:10FF9000CCEF7FF0D0EF7FF05EEC7CF0D2EF7FF023
:10FFA000A9EC7CF03D04D8A4D8EF7FF0DAEF7FF025
:10FFB000DEEF7FF045EC7CF0E0EF7FF0A9EC7CF029
:10FFC0003C04D8A4E6EF7FF0E8EF7FF0ECEF7FF0A1
:10FFD00090EC7CF0EEEF7FF0A9EC7CF03B04D8A431
:10FFE000F4EF7FF0F6EF7FF0FAEF7FF077EC7CF044
:10FFF0009CEF7FF0A9EC7CF09CEF7FF000EF00F02D
:020000040020DA
:08000000FFFFFFFFFFFFFFFF00
:020000040030CA
:0E000000FF071F1FFF8B85FF0FC00FE00F4093
:00000001FF
